{
    "address": "0xf5c4a909455C00B99A90d93b48736F3196DB5621",
    "abi": [
        {
            "anonymous": false,
            "inputs": [
                {
                    "indexed": true,
                    "internalType": "address",
                    "name": "_owner",
                    "type": "address"
                },
                {
                    "indexed": true,
                    "internalType": "address",
                    "name": "_operator",
                    "type": "address"
                },
                {
                    "indexed": false,
                    "internalType": "bool",
                    "name": "_approved",
                    "type": "bool"
                }
            ],
            "name": "ApprovalForAll",
            "type": "event"
        },
        {
            "anonymous": false,
            "inputs": [
                {
                    "indexed": true,
                    "internalType": "uint256",
                    "name": "serie",
                    "type": "uint256"
                },
                {
                    "indexed": true,
                    "internalType": "uint256",
                    "name": "artwork",
                    "type": "uint256"
                },
                {
                    "indexed": false,
                    "internalType": "uint128",
                    "name": "price",
                    "type": "uint128"
                },
                {
                    "indexed": true,
                    "internalType": "address",
                    "name": "gallery",
                    "type": "address"
                }
            ],
            "name": "LogBuy",
            "type": "event"
        },
        {
            "anonymous": false,
            "inputs": [
                {
                    "indexed": true,
                    "internalType": "uint256",
                    "name": "index",
                    "type": "uint256"
                }
            ],
            "name": "LogCreateSeries",
            "type": "event"
        },
        {
            "anonymous": false,
            "inputs": [
                {
                    "indexed": true,
                    "internalType": "address",
                    "name": "_operator",
                    "type": "address"
                },
                {
                    "indexed": true,
                    "internalType": "address",
                    "name": "_from",
                    "type": "address"
                },
                {
                    "indexed": true,
                    "internalType": "address",
                    "name": "_to",
                    "type": "address"
                },
                {
                    "indexed": false,
                    "internalType": "uint256[]",
                    "name": "_ids",
                    "type": "uint256[]"
                },
                {
                    "indexed": false,
                    "internalType": "uint256[]",
                    "name": "_values",
                    "type": "uint256[]"
                }
            ],
            "name": "TransferBatch",
            "type": "event"
        },
        {
            "anonymous": false,
            "inputs": [
                {
                    "indexed": true,
                    "internalType": "address",
                    "name": "_operator",
                    "type": "address"
                },
                {
                    "indexed": true,
                    "internalType": "address",
                    "name": "_from",
                    "type": "address"
                },
                {
                    "indexed": true,
                    "internalType": "address",
                    "name": "_to",
                    "type": "address"
                },
                {
                    "indexed": false,
                    "internalType": "uint256",
                    "name": "_id",
                    "type": "uint256"
                },
                {
                    "indexed": false,
                    "internalType": "uint256",
                    "name": "_value",
                    "type": "uint256"
                }
            ],
            "name": "TransferSingle",
            "type": "event"
        },
        {
            "anonymous": false,
            "inputs": [
                {
                    "indexed": false,
                    "internalType": "string",
                    "name": "_value",
                    "type": "string"
                },
                {
                    "indexed": true,
                    "internalType": "uint256",
                    "name": "_id",
                    "type": "uint256"
                }
            ],
            "name": "URI",
            "type": "event"
        },
        {
            "inputs": [
                {
                    "internalType": "address",
                    "name": "",
                    "type": "address"
                },
                {
                    "internalType": "uint256",
                    "name": "",
                    "type": "uint256"
                }
            ],
            "name": "balanceOf",
            "outputs": [
                {
                    "internalType": "uint256",
                    "name": "",
                    "type": "uint256"
                }
            ],
            "stateMutability": "view",
            "type": "function"
        },
        {
            "inputs": [
                {
                    "internalType": "address[]",
                    "name": "owners",
                    "type": "address[]"
                },
                {
                    "internalType": "uint256[]",
                    "name": "ids",
                    "type": "uint256[]"
                }
            ],
            "name": "balanceOfBatch",
            "outputs": [
                {
                    "internalType": "uint256[]",
                    "name": "balances",
                    "type": "uint256[]"
                }
            ],
            "stateMutability": "view",
            "type": "function"
        },
        {
            "inputs": [
                {
                    "internalType": "uint32",
                    "name": "serie",
                    "type": "uint32"
                },
                {
                    "internalType": "uint32",
                    "name": "artwork",
                    "type": "uint32"
                },
                {
                    "internalType": "address",
                    "name": "gallery",
                    "type": "address"
                }
            ],
            "name": "buy",
            "outputs": [],
            "stateMutability": "payable",
            "type": "function"
        },
        {
            "inputs": [
                {
                    "internalType": "string",
                    "name": "author",
                    "type": "string"
                },
                {
                    "internalType": "string",
                    "name": "name",
                    "type": "string"
                },
                {
                    "internalType": "string",
                    "name": "description",
                    "type": "string"
                },
                {
                    "internalType": "string",
                    "name": "process",
                    "type": "string"
                },
                {
                    "internalType": "uint128",
                    "name": "price",
                    "type": "uint128"
                },
                {
                    "internalType": "string[]",
                    "name": "imageUrls",
                    "type": "string[]"
                }
            ],
            "name": "createSeries",
            "outputs": [
                {
                    "internalType": "uint32",
                    "name": "index",
                    "type": "uint32"
                }
            ],
            "stateMutability": "nonpayable",
            "type": "function"
        },
        {
            "inputs": [
                {
                    "internalType": "uint256",
                    "name": "serie",
                    "type": "uint256"
                }
            ],
            "name": "getSerie",
            "outputs": [
                {
                    "components": [
                        {
                            "internalType": "address",
                            "name": "creator",
                            "type": "address"
                        },
                        {
                            "internalType": "string",
                            "name": "author",
                            "type": "string"
                        },
                        {
                            "internalType": "string",
                            "name": "name",
                            "type": "string"
                        },
                        {
                            "internalType": "string",
                            "name": "description",
                            "type": "string"
                        },
                        {
                            "internalType": "string",
                            "name": "process",
                            "type": "string"
                        },
                        {
                            "internalType": "uint128",
                            "name": "price",
                            "type": "uint128"
                        },
                        {
                            "internalType": "string[]",
                            "name": "artworks",
                            "type": "string[]"
                        }
                    ],
                    "internalType": "struct UnRealArt.Series",
                    "name": "",
                    "type": "tuple"
                }
            ],
            "stateMutability": "view",
            "type": "function"
        },
        {
            "inputs": [
                {
                    "internalType": "address",
                    "name": "",
                    "type": "address"
                },
                {
                    "internalType": "address",
                    "name": "",
                    "type": "address"
                }
            ],
            "name": "isApprovedForAll",
            "outputs": [
                {
                    "internalType": "bool",
                    "name": "",
                    "type": "bool"
                }
            ],
            "stateMutability": "view",
            "type": "function"
        },
        {
            "inputs": [
                {
                    "internalType": "uint256",
                    "name": "id",
                    "type": "uint256"
                },
                {
                    "internalType": "uint256",
                    "name": "price",
                    "type": "uint256"
                }
            ],
            "name": "royaltyInfo",
            "outputs": [
                {
                    "internalType": "address",
                    "name": "receiver",
                    "type": "address"
                },
                {
                    "internalType": "uint256",
                    "name": "royaltyAmount",
                    "type": "uint256"
                }
            ],
            "stateMutability": "view",
            "type": "function"
        },
        {
            "inputs": [
                {
                    "internalType": "address",
                    "name": "from",
                    "type": "address"
                },
                {
                    "internalType": "address",
                    "name": "to",
                    "type": "address"
                },
                {
                    "internalType": "uint256[]",
                    "name": "ids",
                    "type": "uint256[]"
                },
                {
                    "internalType": "uint256[]",
                    "name": "values",
                    "type": "uint256[]"
                },
                {
                    "internalType": "bytes",
                    "name": "data",
                    "type": "bytes"
                }
            ],
            "name": "safeBatchTransferFrom",
            "outputs": [],
            "stateMutability": "nonpayable",
            "type": "function"
        },
        {
            "inputs": [
                {
                    "internalType": "address",
                    "name": "from",
                    "type": "address"
                },
                {
                    "internalType": "address",
                    "name": "to",
                    "type": "address"
                },
                {
                    "internalType": "uint256",
                    "name": "id",
                    "type": "uint256"
                },
                {
                    "internalType": "uint256",
                    "name": "value",
                    "type": "uint256"
                },
                {
                    "internalType": "bytes",
                    "name": "data",
                    "type": "bytes"
                }
            ],
            "name": "safeTransferFrom",
            "outputs": [],
            "stateMutability": "nonpayable",
            "type": "function"
        },
        {
            "inputs": [
                {
                    "internalType": "uint256",
                    "name": "",
                    "type": "uint256"
                }
            ],
            "name": "series",
            "outputs": [
                {
                    "internalType": "address",
                    "name": "creator",
                    "type": "address"
                },
                {
                    "internalType": "string",
                    "name": "author",
                    "type": "string"
                },
                {
                    "internalType": "string",
                    "name": "name",
                    "type": "string"
                },
                {
                    "internalType": "string",
                    "name": "description",
                    "type": "string"
                },
                {
                    "internalType": "string",
                    "name": "process",
                    "type": "string"
                },
                {
                    "internalType": "uint128",
                    "name": "price",
                    "type": "uint128"
                }
            ],
            "stateMutability": "view",
            "type": "function"
        },
        {
            "inputs": [],
            "name": "seriesCount",
            "outputs": [
                {
                    "internalType": "uint256",
                    "name": "",
                    "type": "uint256"
                }
            ],
            "stateMutability": "view",
            "type": "function"
        },
        {
            "inputs": [
                {
                    "internalType": "address",
                    "name": "operator",
                    "type": "address"
                },
                {
                    "internalType": "bool",
                    "name": "approved",
                    "type": "bool"
                }
            ],
            "name": "setApprovalForAll",
            "outputs": [],
            "stateMutability": "nonpayable",
            "type": "function"
        },
        {
            "inputs": [
                {
                    "internalType": "uint256",
                    "name": "",
                    "type": "uint256"
                }
            ],
            "name": "soldTo",
            "outputs": [
                {
                    "internalType": "address",
                    "name": "",
                    "type": "address"
                }
            ],
            "stateMutability": "view",
            "type": "function"
        },
        {
            "inputs": [
                {
                    "internalType": "bytes4",
                    "name": "interfaceID",
                    "type": "bytes4"
                }
            ],
            "name": "supportsInterface",
            "outputs": [
                {
                    "internalType": "bool",
                    "name": "",
                    "type": "bool"
                }
            ],
            "stateMutability": "pure",
            "type": "function"
        },
        {
            "inputs": [
                {
                    "internalType": "uint256",
                    "name": "",
                    "type": "uint256"
                }
            ],
            "name": "totalSupply",
            "outputs": [
                {
                    "internalType": "uint256",
                    "name": "",
                    "type": "uint256"
                }
            ],
            "stateMutability": "view",
            "type": "function"
        },
        {
            "inputs": [
                {
                    "internalType": "uint256",
                    "name": "id",
                    "type": "uint256"
                }
            ],
            "name": "uri",
            "outputs": [
                {
                    "internalType": "string",
                    "name": "",
                    "type": "string"
                }
            ],
            "stateMutability": "view",
            "type": "function"
        }
    ],
    "transactionHash": "0xae1457502ac010319361caf159df53e7bab37c427e409ab2f14f92f27c6a4385",
    "args": [],
    "numDeployments": 1,
    "solcInputHash": "ddca10809ff784869b1128d42fba46b0",
    "bytecode": "0x60806040526005805460ff1916905534801561001a57600080fd5b5061359c8061002a6000396000f3fe6080604052600436106100f25760003560e01c8063a22cb4651161008a578063dc22cb6a11610059578063dc22cb6a14610311578063e985e9c514610343578063f242432a1461037b578063f2b8f4241461039b57600080fd5b8063a22cb4651461029c578063bd85b039146102bc578063d78e7c9a146102e9578063d7f2c0ef146102fc57600080fd5b80632eb2c2d6116100c65780632eb2c2d6146101eb5780634e1273f41461020d57806353576d951461023a578063662b1d231461026757600080fd5b8062fdd58e146100f757806301ffc9a7146101425780630e89341c146101725780632a55205a1461019f575b600080fd5b34801561010357600080fd5b5061012f610112366004612684565b600160209081526000928352604080842090915290825290205481565b6040519081526020015b60405180910390f35b34801561014e57600080fd5b5061016261015d3660046126dc565b610403565b6040519015158152602001610139565b34801561017e57600080fd5b5061019261018d366004612700565b610460565b6040516101399190612793565b3480156101ab57600080fd5b506101bf6101ba3660046127a6565b6105b0565b6040805173ffffffffffffffffffffffffffffffffffffffff9093168352602083019190915201610139565b3480156101f757600080fd5b5061020b61020636600461284f565b610615565b005b34801561021957600080fd5b5061022d61022836600461290a565b6107fe565b6040516101399190612976565b34801561024657600080fd5b5061025a610255366004612700565b610982565b6040516101399190612a0f565b34801561027357600080fd5b50610287610282366004612b2e565b610d7b565b60405163ffffffff9091168152602001610139565b3480156102a857600080fd5b5061020b6102b7366004612c32565b61115b565b3480156102c857600080fd5b5061012f6102d7366004612700565b60026020526000908152604090205481565b61020b6102f7366004612c82565b6111f0565b34801561030857600080fd5b5060035461012f565b34801561031d57600080fd5b5061033161032c366004612700565b61179d565b60405161013996959493929190612cc5565b34801561034f57600080fd5b5061016261035e366004612d54565b600060208181529281526040808220909352908152205460ff1681565b34801561038757600080fd5b5061020b610396366004612d87565b611a2e565b3480156103a757600080fd5b506103de6103b6366004612700565b60046020526000908152604090205473ffffffffffffffffffffffffffffffffffffffff1681565b60405173ffffffffffffffffffffffffffffffffffffffff9091168152602001610139565b600061040e82611ba1565b8061045a57507f2a55205a000000000000000000000000000000000000000000000000000000007fffffffff000000000000000000000000000000000000000000000000000000008316145b92915050565b60606000610476670de0b6b3a764000084612e5d565b9050600061048c670de0b6b3a764000085612e71565b9050610588600383815481106104a4576104a4612e85565b9060005260206000209060070201600201600384815481106104c8576104c8612e85565b9060005260206000209060070201600301600385815481106104ec576104ec612e85565b9060005260206000209060070201600601848154811061050e5761050e612e85565b906000526020600020016003868154811061052b5761052b612e85565b90600052602060002090600702016001016003878154811061054f5761054f612e85565b9060005260206000209060070201600401604051602001610574959493929190612fd9565b604051602081830303815290604052611c82565b6040516020016105989190613129565b60405160208183030381529060405292505050919050565b60008060036105c7670de0b6b3a764000086612e5d565b815481106105d7576105d7612e85565b600091825260209091206007909102015473ffffffffffffffffffffffffffffffffffffffff16610609600a85612e5d565b915091505b9250929050565b848314610683576040517f08c379a000000000000000000000000000000000000000000000000000000000815260206004820152601860248201527f455243313135353a204c656e677468206d69736d61746368000000000000000060448201526064015b60405180910390fd5b61068c88611e5b565b61069a888888888888611f1b565b73ffffffffffffffffffffffffffffffffffffffff87163b156107f4576040517fbc197c81000000000000000000000000000000000000000000000000000000008082529073ffffffffffffffffffffffffffffffffffffffff89169063bc197c81906107199033908d908c908c908c908c908c908c90600401613206565b602060405180830381600087803b15801561073357600080fd5b505af1158015610747573d6000803e3d6000fd5b505050506040513d601f19601f8201168201806040525081019061076b9190613277565b7fffffffff0000000000000000000000000000000000000000000000000000000016146107f4576040517f08c379a000000000000000000000000000000000000000000000000000000000815260206004820152601260248201527f57726f6e672072657475726e2076616c75650000000000000000000000000000604482015260640161067a565b5050505050505050565b60608382811461086a576040517f08c379a000000000000000000000000000000000000000000000000000000000815260206004820152601860248201527f455243313135353a204c656e677468206d69736d617463680000000000000000604482015260640161067a565b8067ffffffffffffffff81111561088357610883613294565b6040519080825280602002602001820160405280156108ac578160200160208202803683370190505b50915060005b8181101561097857600160008888848181106108d0576108d0612e85565b90506020020160208101906108e591906132c3565b73ffffffffffffffffffffffffffffffffffffffff1673ffffffffffffffffffffffffffffffffffffffff168152602001908152602001600020600086868481811061093357610933612e85565b9050602002013581526020019081526020016000205483828151811061095b5761095b612e85565b602090810291909101015280610970816132de565b9150506108b2565b5050949350505050565b6109ea6040518060e00160405280600073ffffffffffffffffffffffffffffffffffffffff1681526020016060815260200160608152602001606081526020016060815260200160006fffffffffffffffffffffffffffffffff168152602001606081525090565b600382815481106109fd576109fd612e85565b60009182526020918290206040805160e08101909152600790920201805473ffffffffffffffffffffffffffffffffffffffff1682526001810180549293919291840191610a4a90612eb4565b80601f0160208091040260200160405190810160405280929190818152602001828054610a7690612eb4565b8015610ac35780601f10610a9857610100808354040283529160200191610ac3565b820191906000526020600020905b815481529060010190602001808311610aa657829003601f168201915b50505050508152602001600282018054610adc90612eb4565b80601f0160208091040260200160405190810160405280929190818152602001828054610b0890612eb4565b8015610b555780601f10610b2a57610100808354040283529160200191610b55565b820191906000526020600020905b815481529060010190602001808311610b3857829003601f168201915b50505050508152602001600382018054610b6e90612eb4565b80601f0160208091040260200160405190810160405280929190818152602001828054610b9a90612eb4565b8015610be75780601f10610bbc57610100808354040283529160200191610be7565b820191906000526020600020905b815481529060010190602001808311610bca57829003601f168201915b50505050508152602001600482018054610c0090612eb4565b80601f0160208091040260200160405190810160405280929190818152602001828054610c2c90612eb4565b8015610c795780601f10610c4e57610100808354040283529160200191610c79565b820191906000526020600020905b815481529060010190602001808311610c5c57829003601f168201915b505050918352505060058201546fffffffffffffffffffffffffffffffff16602080830191909152600683018054604080518285028101850182528281529401939260009084015b82821015610d6d578382906000526020600020018054610ce090612eb4565b80601f0160208091040260200160405190810160405280929190818152602001828054610d0c90612eb4565b8015610d595780601f10610d2e57610100808354040283529160200191610d59565b820191906000526020600020905b815481529060010190602001808311610d3c57829003601f168201915b505050505081526020019060010190610cc1565b505050915250909392505050565b6003546040805160e0810182526060602080830182905282840182905281830182905260808301829052600060a084015260c08301919091523382528251601f8f018290048202810182019093528d83529091908e908e908190840183828082843760009201919091525050505060208083019190915260408051601f8d018390048302810183019091528b8152908c908c908190840183828082843760009201919091525050505060408083019190915280516020601f8b01819004810282018101909252898152908a908a90819084018382808284376000920191909152505050506060820152604080516020601f8901819004810282018101909252878152908890889081908401838280828437600092018290525060808601949094525050506fffffffffffffffffffffffffffffffff861660a083015260038054600181018255915281517fc2575a0e9e593c00f959f8c92f12db2869c3395a3b0502d05e2516446f71f85b600790920291820180547fffffffffffffffffffffffff00000000000000000000000000000000000000001673ffffffffffffffffffffffffffffffffffffffff90921691909117815560208084015180518594610f6a937fc2575a0e9e593c00f959f8c92f12db2869c3395a3b0502d05e2516446f71f85c909101920190612480565b5060408201518051610f86916002840191602090910190612480565b5060608201518051610fa2916003840191602090910190612480565b5060808201518051610fbe916004840191602090910190612480565b5060a08201516005820180547fffffffffffffffffffffffffffffffff00000000000000000000000000000000166fffffffffffffffffffffffffffffffff90921691909117905560c08201518051611021916006840191602090910190612504565b50505060005b8381101561111957600060038463ffffffff168154811061104a5761104a612e85565b600091825260209091206006600790920201015461107663ffffffff8616670de0b6b3a7640000613317565b67ffffffffffffffff1661108a9190613347565b90506110983382600161210c565b60038463ffffffff16815481106110b1576110b1612e85565b90600052602060002090600702016006018686848181106110d4576110d4612e85565b90506020028101906110e6919061335f565b8254600181018455600093845260209093206111049301919061255d565b50508080611111906132de565b915050611027565b5060405163ffffffff8316907f2371cef6032b20ad35a9487c8cce5e454620dab2674022e4302a03ccff15031c90600090a2509b9a5050505050505050505050565b3360008181526020818152604080832073ffffffffffffffffffffffffffffffffffffffff87168085529083529281902080547fffffffffffffffffffffffffffffffffffffffffffffffffffffffffffffff001686151590811790915590519081529192917f17307eab39ab6107e8899845ad3d59bd9653f200f220920489ca2b5937696c31910160405180910390a35050565b60055460ff161561125d576040517f08c379a000000000000000000000000000000000000000000000000000000000815260206004820152600a60248201527f4e6f7420616761696e2100000000000000000000000000000000000000000000604482015260640161067a565b600580547fffffffffffffffffffffffffffffffffffffffffffffffffffffffffffffff00166001179055600063ffffffff808416906112a7908616670de0b6b3a7640000613317565b6112b191906133c4565b67ffffffffffffffff1660008181526004602052604090205490915073ffffffffffffffffffffffffffffffffffffffff161561134a576040517f08c379a000000000000000000000000000000000000000000000000000000000815260206004820152600c60248201527f416c726561647920736f6c640000000000000000000000000000000000000000604482015260640161067a565b6001600060038663ffffffff168154811061136757611367612e85565b6000918252602080832060079092029091015473ffffffffffffffffffffffffffffffffffffffff1683528281019390935260409182018120848252909252902054600114611412576040517f08c379a000000000000000000000000000000000000000000000000000000000815260206004820152600c60248201527f4e6f7420666f722073616c650000000000000000000000000000000000000000604482015260640161067a565b600060038563ffffffff168154811061142d5761142d612e85565b60009182526020909120600560079092020101546fffffffffffffffffffffffffffffffff169050348111156114bf576040517f08c379a000000000000000000000000000000000000000000000000000000000815260206004820152601560248201527f4e6f7420656e6f7567682066756e64732073656e740000000000000000000000604482015260640161067a565b60038563ffffffff16815481106114d8576114d8612e85565b600091825260209091206007909102015473ffffffffffffffffffffffffffffffffffffffff16331415611568576040517f08c379a000000000000000000000000000000000000000000000000000000000815260206004820152601360248201527f43616e6e6f7420627579206f776e20776f726b00000000000000000000000000604482015260640161067a565b600082815260046020526040902080547fffffffffffffffffffffffff00000000000000000000000000000000000000001633179055600380546115ed919063ffffffff88169081106115bd576115bd612e85565b600091825260209091206007909102015473ffffffffffffffffffffffffffffffffffffffff163384600161224c565b61161361160c6fffffffffffffffffffffffffffffffff8316476133f0565b33906123b1565b611685606461162383605a613407565b61162d9190613436565b6fffffffffffffffffffffffffffffffff1660038763ffffffff168154811061165857611658612e85565b600091825260209091206007909102015473ffffffffffffffffffffffffffffffffffffffff16906123b1565b611704606461169583600a613407565b61169f9190613436565b6fffffffffffffffffffffffffffffffff1673ffffffffffffffffffffffffffffffffffffffff85166116e657739e6e344f94305d36ea59912b0911fe2c9149ed3e6116e8565b845b73ffffffffffffffffffffffffffffffffffffffff16906123b1565b6040516fffffffffffffffffffffffffffffffff8216815273ffffffffffffffffffffffffffffffffffffffff84169063ffffffff80871691908816907fc14306f241220755eadc850dca73f5e0ecd55bfa3c7ae970b5fe1911d9cd84ae9060200160405180910390a45050600580547fffffffffffffffffffffffffffffffffffffffffffffffffffffffffffffff00169055505050565b600381815481106117ad57600080fd5b60009182526020909120600790910201805460018201805473ffffffffffffffffffffffffffffffffffffffff9092169350906117e990612eb4565b80601f016020809104026020016040519081016040528092919081815260200182805461181590612eb4565b80156118625780601f1061183757610100808354040283529160200191611862565b820191906000526020600020905b81548152906001019060200180831161184557829003601f168201915b50505050509080600201805461187790612eb4565b80601f01602080910402602001604051908101604052809291908181526020018280546118a390612eb4565b80156118f05780601f106118c5576101008083540402835291602001916118f0565b820191906000526020600020905b8154815290600101906020018083116118d357829003601f168201915b50505050509080600301805461190590612eb4565b80601f016020809104026020016040519081016040528092919081815260200182805461193190612eb4565b801561197e5780601f106119535761010080835404028352916020019161197e565b820191906000526020600020905b81548152906001019060200180831161196157829003601f168201915b50505050509080600401805461199390612eb4565b80601f01602080910402602001604051908101604052809291908181526020018280546119bf90612eb4565b8015611a0c5780601f106119e157610100808354040283529160200191611a0c565b820191906000526020600020905b8154815290600101906020018083116119ef57829003601f168201915b505050600590930154919250506fffffffffffffffffffffffffffffffff1686565b611a3786611e5b565b611a438686868661224c565b73ffffffffffffffffffffffffffffffffffffffff85163b15611b99576040517ff23a6e61000000000000000000000000000000000000000000000000000000008082529073ffffffffffffffffffffffffffffffffffffffff87169063f23a6e6190611abe9033908b908a908a908a908a90600401613465565b602060405180830381600087803b158015611ad857600080fd5b505af1158015611aec573d6000803e3d6000fd5b505050506040513d601f19601f82011682018060405250810190611b109190613277565b7fffffffff000000000000000000000000000000000000000000000000000000001614611b99576040517f08c379a000000000000000000000000000000000000000000000000000000000815260206004820152601260248201527f57726f6e672072657475726e2076616c75650000000000000000000000000000604482015260640161067a565b505050505050565b60007fffffffff0000000000000000000000000000000000000000000000000000000082167f01ffc9a7000000000000000000000000000000000000000000000000000000001480611c3457507fd9b67a26000000000000000000000000000000000000000000000000000000007fffffffff000000000000000000000000000000000000000000000000000000008316145b8061045a5750507fffffffff00000000000000000000000000000000000000000000000000000000167f0e89341c000000000000000000000000000000000000000000000000000000001490565b6060815160001415611ca257505060408051602081019091526000815290565b60006040518060600160405280604081526020016135276040913990506000600384516002611cd19190613347565b611cdb9190612e5d565b611ce69060046134b7565b90506000611cf5826020613347565b67ffffffffffffffff811115611d0d57611d0d613294565b6040519080825280601f01601f191660200182016040528015611d37576020820181803683370190505b509050818152600183018586518101602084015b81831015611da3576003830192508251603f8160121c168501518253600182019150603f81600c1c168501518253600182019150603f8160061c168501518253600182019150603f8116850151825350600101611d4b565b600389510660018114611dbd5760028114611e0757611e4d565b7f3d3d0000000000000000000000000000000000000000000000000000000000007ffffffffffffffffffffffffffffffffffffffffffffffffffffffffffffffffe830152611e4d565b7f3d000000000000000000000000000000000000000000000000000000000000007fffffffffffffffffffffffffffffffffffffffffffffffffffffffffffffffff8301525b509398975050505050505050565b73ffffffffffffffffffffffffffffffffffffffff8116331480611eb2575073ffffffffffffffffffffffffffffffffffffffff811660009081526020818152604080832033845290915290205460ff1615156001145b611f18576040517f08c379a000000000000000000000000000000000000000000000000000000000815260206004820152601460248201527f5472616e73666572206e6f7420616c6c6f776564000000000000000000000000604482015260640161067a565b50565b73ffffffffffffffffffffffffffffffffffffffff8516611f98576040517f08c379a000000000000000000000000000000000000000000000000000000000815260206004820152600c60248201527f4e6f203020616464726573730000000000000000000000000000000000000000604482015260640161067a565b60005b83811015612081576000858583818110611fb757611fb7612e85565b9050602002013590506000848484818110611fd457611fd4612e85565b73ffffffffffffffffffffffffffffffffffffffff8c166000908152600160209081526040808320888452825282208054939091029490940135945084939250906120209084906133f0565b909155505073ffffffffffffffffffffffffffffffffffffffff8816600090815260016020908152604080832085845290915281208054839290612065908490613347565b9250508190555050508080612079906132de565b915050611f9b565b508473ffffffffffffffffffffffffffffffffffffffff168673ffffffffffffffffffffffffffffffffffffffff163373ffffffffffffffffffffffffffffffffffffffff167f4a39dc06d4c0dbc64b70af90fd698a233a518aa5d07e595d983b8c0526c8f7fb878787876040516120fc94939291906134f4565b60405180910390a4505050505050565b73ffffffffffffffffffffffffffffffffffffffff8316612189576040517f08c379a000000000000000000000000000000000000000000000000000000000815260206004820152600c60248201527f4e6f203020616464726573730000000000000000000000000000000000000000604482015260640161067a565b73ffffffffffffffffffffffffffffffffffffffff83166000908152600160209081526040808320858452909152812080548392906121c9908490613347565b9091555050600082815260026020526040812080548392906121ec908490613347565b9091555050604080518381526020810183905273ffffffffffffffffffffffffffffffffffffffff85169160009133917fc3d58168c5ae7397731d063d5bbf3d657854427343f4c083240f7aacaa2d0f62910160405180910390a4505050565b73ffffffffffffffffffffffffffffffffffffffff83166122c9576040517f08c379a000000000000000000000000000000000000000000000000000000000815260206004820152600c60248201527f4e6f203020616464726573730000000000000000000000000000000000000000604482015260640161067a565b73ffffffffffffffffffffffffffffffffffffffff84166000908152600160209081526040808320858452909152812080548392906123099084906133f0565b909155505073ffffffffffffffffffffffffffffffffffffffff831660009081526001602090815260408083208584529091528120805483929061234e908490613347565b9091555050604080518381526020810183905273ffffffffffffffffffffffffffffffffffffffff808616929087169133917fc3d58168c5ae7397731d063d5bbf3d657854427343f4c083240f7aacaa2d0f62910160405180910390a450505050565b60008273ffffffffffffffffffffffffffffffffffffffff168260405160006040518083038185875af1925050503d806000811461240b576040519150601f19603f3d011682016040523d82523d6000602084013e612410565b606091505b505090508061247b576040517f08c379a000000000000000000000000000000000000000000000000000000000815260206004820152601e60248201527f426f72696e67416464726573733a207472616e73666572206661696c65640000604482015260640161067a565b505050565b82805461248c90612eb4565b90600052602060002090601f0160209004810192826124ae57600085556124f4565b82601f106124c757805160ff19168380011785556124f4565b828001600101855582156124f4579182015b828111156124f45782518255916020019190600101906124d9565b506125009291506125ef565b5090565b828054828255906000526020600020908101928215612551579160200282015b828111156125515782518051612541918491602090910190612480565b5091602001919060010190612524565b50612500929150612604565b82805461256990612eb4565b90600052602060002090601f01602090048101928261258b57600085556124f4565b82601f106125c2578280017fffffffffffffffffffffffffffffffffffffffffffffffffffffffffffffff008235161785556124f4565b828001600101855582156124f4579182015b828111156124f45782358255916020019190600101906125d4565b5b8082111561250057600081556001016125f0565b808211156125005760006126188282612621565b50600101612604565b50805461262d90612eb4565b6000825580601f1061263d575050565b601f016020900490600052602060002090810190611f1891906125ef565b803573ffffffffffffffffffffffffffffffffffffffff8116811461267f57600080fd5b919050565b6000806040838503121561269757600080fd5b6126a08361265b565b946020939093013593505050565b7fffffffff0000000000000000000000000000000000000000000000000000000081168114611f1857600080fd5b6000602082840312156126ee57600080fd5b81356126f9816126ae565b9392505050565b60006020828403121561271257600080fd5b5035919050565b60005b8381101561273457818101518382015260200161271c565b83811115612743576000848401525b50505050565b60008151808452612761816020860160208601612719565b601f017fffffffffffffffffffffffffffffffffffffffffffffffffffffffffffffffe0169290920160200192915050565b6020815260006126f96020830184612749565b600080604083850312156127b957600080fd5b50508035926020909101359150565b60008083601f8401126127da57600080fd5b50813567ffffffffffffffff8111156127f257600080fd5b6020830191508360208260051b850101111561060e57600080fd5b60008083601f84011261281f57600080fd5b50813567ffffffffffffffff81111561283757600080fd5b60208301915083602082850101111561060e57600080fd5b60008060008060008060008060a0898b03121561286b57600080fd5b6128748961265b565b975061288260208a0161265b565b9650604089013567ffffffffffffffff8082111561289f57600080fd5b6128ab8c838d016127c8565b909850965060608b01359150808211156128c457600080fd5b6128d08c838d016127c8565b909650945060808b01359150808211156128e957600080fd5b506128f68b828c0161280d565b999c989b5096995094979396929594505050565b6000806000806040858703121561292057600080fd5b843567ffffffffffffffff8082111561293857600080fd5b612944888389016127c8565b9096509450602087013591508082111561295d57600080fd5b5061296a878288016127c8565b95989497509550505050565b6020808252825182820181905260009190848201906040850190845b818110156129ae57835183529284019291840191600101612992565b50909695505050505050565b600081518084526020808501808196508360051b8101915082860160005b85811015612a025782840389526129f0848351612749565b988501989350908401906001016129d8565b5091979650505050505050565b6020815273ffffffffffffffffffffffffffffffffffffffff82511660208201526000602083015160e06040840152612a4c610100840182612749565b905060408401517fffffffffffffffffffffffffffffffffffffffffffffffffffffffffffffffe080858403016060860152612a888383612749565b92506060860151915080858403016080860152612aa58383612749565b925060808601519150808584030160a0860152612ac28383612749565b925060a08601519150612ae960c08601836fffffffffffffffffffffffffffffffff169052565b60c08601519150808584030160e086015250612b0582826129ba565b95945050505050565b80356fffffffffffffffffffffffffffffffff8116811461267f57600080fd5b600080600080600080600080600080600060c08c8e031215612b4f57600080fd5b67ffffffffffffffff808d351115612b6657600080fd5b612b738e8e358f0161280d565b909c509a5060208d0135811015612b8957600080fd5b612b998e60208f01358f0161280d565b909a50985060408d0135811015612baf57600080fd5b612bbf8e60408f01358f0161280d565b909850965060608d0135811015612bd557600080fd5b612be58e60608f01358f0161280d565b9096509450612bf660808e01612b0e565b93508060a08e01351115612c0957600080fd5b50612c1a8d60a08e01358e016127c8565b81935080925050509295989b509295989b9093969950565b60008060408385031215612c4557600080fd5b612c4e8361265b565b915060208301358015158114612c6357600080fd5b809150509250929050565b803563ffffffff8116811461267f57600080fd5b600080600060608486031215612c9757600080fd5b612ca084612c6e565b9250612cae60208501612c6e565b9150612cbc6040850161265b565b90509250925092565b73ffffffffffffffffffffffffffffffffffffffff8716815260c060208201526000612cf460c0830188612749565b8281036040840152612d068188612749565b90508281036060840152612d1a8187612749565b90508281036080840152612d2e8186612749565b9150506fffffffffffffffffffffffffffffffff831660a0830152979650505050505050565b60008060408385031215612d6757600080fd5b612d708361265b565b9150612d7e6020840161265b565b90509250929050565b60008060008060008060a08789031215612da057600080fd5b612da98761265b565b9550612db76020880161265b565b94506040870135935060608701359250608087013567ffffffffffffffff811115612de157600080fd5b612ded89828a0161280d565b979a9699509497509295939492505050565b7f4e487b7100000000000000000000000000000000000000000000000000000000600052601260045260246000fd5b7f4e487b7100000000000000000000000000000000000000000000000000000000600052601160045260246000fd5b600082612e6c57612e6c612dff565b500490565b600082612e8057612e80612dff565b500690565b7f4e487b7100000000000000000000000000000000000000000000000000000000600052603260045260246000fd5b600181811c90821680612ec857607f821691505b60208210811415612f02577f4e487b7100000000000000000000000000000000000000000000000000000000600052602260045260246000fd5b50919050565b8054600090600181811c9080831680612f2257607f831692505b6020808410821415612f5d577f4e487b7100000000000000000000000000000000000000000000000000000000600052602260045260246000fd5b818015612f715760018114612fa057612fcd565b7fffffffffffffffffffffffffffffffffffffffffffffffffffffffffffffff00861689528489019650612fcd565b60008881526020902060005b86811015612fc55781548b820152908501908301612fac565b505084890196505b50505050505092915050565b7f7b226e616d65223a2200000000000000000000000000000000000000000000008152600061300b6009830188612f08565b7f222c226465736372697074696f6e223a22000000000000000000000000000000815261303b6011820188612f08565b90507f222c22696d616765223a22697066733a2f2f697066732f000000000000000000815261306d6017820187612f08565b90507f222c22646563696d616c73223a302c2270726f70657274696573223a7b22617581527f74686f72223a220000000000000000000000000000000000000000000000000060208201526130c56027820186612f08565b90507f222c2270726f63657373223a220000000000000000000000000000000000000081526130f7600d820185612f08565b7f227d7d0000000000000000000000000000000000000000000000000000000000815260030198975050505050505050565b7f646174613a6170706c69636174696f6e2f6a736f6e3b6261736536342c00000081526000825161316181601d850160208701612719565b91909101601d0192915050565b81835260007f07ffffffffffffffffffffffffffffffffffffffffffffffffffffffffffffff8311156131a057600080fd5b8260051b8083602087013760009401602001938452509192915050565b8183528181602085013750600060208284010152600060207fffffffffffffffffffffffffffffffffffffffffffffffffffffffffffffffe0601f840116840101905092915050565b600073ffffffffffffffffffffffffffffffffffffffff808b168352808a1660208401525060a0604083015261324060a08301888a61316e565b828103606084015261325381878961316e565b905082810360808401526132688185876131bd565b9b9a5050505050505050505050565b60006020828403121561328957600080fd5b81516126f9816126ae565b7f4e487b7100000000000000000000000000000000000000000000000000000000600052604160045260246000fd5b6000602082840312156132d557600080fd5b6126f98261265b565b60007fffffffffffffffffffffffffffffffffffffffffffffffffffffffffffffffff82141561331057613310612e2e565b5060010190565b600067ffffffffffffffff8083168185168183048111821515161561333e5761333e612e2e565b02949350505050565b6000821982111561335a5761335a612e2e565b500190565b60008083357fffffffffffffffffffffffffffffffffffffffffffffffffffffffffffffffe184360301811261339457600080fd5b83018035915067ffffffffffffffff8211156133af57600080fd5b60200191503681900382131561060e57600080fd5b600067ffffffffffffffff8083168185168083038211156133e7576133e7612e2e565b01949350505050565b60008282101561340257613402612e2e565b500390565b60006fffffffffffffffffffffffffffffffff8083168185168183048111821515161561333e5761333e612e2e565b60006fffffffffffffffffffffffffffffffff8084168061345957613459612dff565b92169190910492915050565b600073ffffffffffffffffffffffffffffffffffffffff808916835280881660208401525085604083015284606083015260a060808301526134ab60a0830184866131bd565b98975050505050505050565b6000817fffffffffffffffffffffffffffffffffffffffffffffffffffffffffffffffff04831182151516156134ef576134ef612e2e565b500290565b60408152600061350860408301868861316e565b828103602084015261351b81858761316e565b97965050505050505056fe4142434445464748494a4b4c4d4e4f505152535455565758595a6162636465666768696a6b6c6d6e6f707172737475767778797a303132333435363738392b2fa26469706673582212204d25b63364b969f3a4226d53db5f8e430457682be6288634261a96f999134b2964736f6c63430008090033",
    "devdoc": {
        "kind": "dev",
        "methods": {},
        "version": 1
    },
    "userdoc": {
        "kind": "user",
        "methods": {},
        "version": 1
    },
    "storageLayout": {
        "storage": [
            {
                "astId": 16,
                "contract": "contracts/UnRealArt.sol:UnRealArt",
                "label": "isApprovedForAll",
                "offset": 0,
                "slot": "0",
                "type": "t_mapping(t_address,t_mapping(t_address,t_bool))"
            },
            {
                "astId": 23,
                "contract": "contracts/UnRealArt.sol:UnRealArt",
                "label": "balanceOf",
                "offset": 0,
                "slot": "1",
                "type": "t_mapping(t_address,t_mapping(t_uint256,t_uint256))"
            },
            {
                "astId": 27,
                "contract": "contracts/UnRealArt.sol:UnRealArt",
                "label": "totalSupply",
                "offset": 0,
                "slot": "2",
                "type": "t_mapping(t_uint256,t_uint256)"
            },
            {
                "astId": 796,
                "contract": "contracts/UnRealArt.sol:UnRealArt",
                "label": "series",
                "offset": 0,
                "slot": "3",
                "type": "t_array(t_struct(Series)792_storage)dyn_storage"
            },
            {
                "astId": 800,
                "contract": "contracts/UnRealArt.sol:UnRealArt",
                "label": "soldTo",
                "offset": 0,
                "slot": "4",
                "type": "t_mapping(t_uint256,t_address)"
            },
            {
                "astId": 959,
                "contract": "contracts/UnRealArt.sol:UnRealArt",
                "label": "buying",
                "offset": 0,
                "slot": "5",
                "type": "t_bool"
            }
        ],
        "types": {
            "t_address": {
                "encoding": "inplace",
                "label": "address",
                "numberOfBytes": "20"
            },
            "t_array(t_string_storage)dyn_storage": {
                "base": "t_string_storage",
                "encoding": "dynamic_array",
                "label": "string[]",
                "numberOfBytes": "32"
            },
            "t_array(t_struct(Series)792_storage)dyn_storage": {
                "base": "t_struct(Series)792_storage",
                "encoding": "dynamic_array",
                "label": "struct UnRealArt.Series[]",
                "numberOfBytes": "32"
            },
            "t_bool": {
                "encoding": "inplace",
                "label": "bool",
                "numberOfBytes": "1"
            },
            "t_mapping(t_address,t_bool)": {
                "encoding": "mapping",
                "key": "t_address",
                "label": "mapping(address => bool)",
                "numberOfBytes": "32",
                "value": "t_bool"
            },
            "t_mapping(t_address,t_mapping(t_address,t_bool))": {
                "encoding": "mapping",
                "key": "t_address",
                "label": "mapping(address => mapping(address => bool))",
                "numberOfBytes": "32",
                "value": "t_mapping(t_address,t_bool)"
            },
            "t_mapping(t_address,t_mapping(t_uint256,t_uint256))": {
                "encoding": "mapping",
                "key": "t_address",
                "label": "mapping(address => mapping(uint256 => uint256))",
                "numberOfBytes": "32",
                "value": "t_mapping(t_uint256,t_uint256)"
            },
            "t_mapping(t_uint256,t_address)": {
                "encoding": "mapping",
                "key": "t_uint256",
                "label": "mapping(uint256 => address)",
                "numberOfBytes": "32",
                "value": "t_address"
            },
            "t_mapping(t_uint256,t_uint256)": {
                "encoding": "mapping",
                "key": "t_uint256",
                "label": "mapping(uint256 => uint256)",
                "numberOfBytes": "32",
                "value": "t_uint256"
            },
            "t_string_storage": {
                "encoding": "bytes",
                "label": "string",
                "numberOfBytes": "32"
            },
            "t_struct(Series)792_storage": {
                "encoding": "inplace",
                "label": "struct UnRealArt.Series",
                "members": [
                    {
                        "astId": 778,
                        "contract": "contracts/UnRealArt.sol:UnRealArt",
                        "label": "creator",
                        "offset": 0,
                        "slot": "0",
                        "type": "t_address"
                    },
                    {
                        "astId": 780,
                        "contract": "contracts/UnRealArt.sol:UnRealArt",
                        "label": "author",
                        "offset": 0,
                        "slot": "1",
                        "type": "t_string_storage"
                    },
                    {
                        "astId": 782,
                        "contract": "contracts/UnRealArt.sol:UnRealArt",
                        "label": "name",
                        "offset": 0,
                        "slot": "2",
                        "type": "t_string_storage"
                    },
                    {
                        "astId": 784,
                        "contract": "contracts/UnRealArt.sol:UnRealArt",
                        "label": "description",
                        "offset": 0,
                        "slot": "3",
                        "type": "t_string_storage"
                    },
                    {
                        "astId": 786,
                        "contract": "contracts/UnRealArt.sol:UnRealArt",
                        "label": "process",
                        "offset": 0,
                        "slot": "4",
                        "type": "t_string_storage"
                    },
                    {
                        "astId": 788,
                        "contract": "contracts/UnRealArt.sol:UnRealArt",
                        "label": "price",
                        "offset": 0,
                        "slot": "5",
                        "type": "t_uint128"
                    },
                    {
                        "astId": 791,
                        "contract": "contracts/UnRealArt.sol:UnRealArt",
                        "label": "artworks",
                        "offset": 0,
                        "slot": "6",
                        "type": "t_array(t_string_storage)dyn_storage"
                    }
                ],
                "numberOfBytes": "224"
            },
            "t_uint128": {
                "encoding": "inplace",
                "label": "uint128",
                "numberOfBytes": "16"
            },
            "t_uint256": {
                "encoding": "inplace",
                "label": "uint256",
                "numberOfBytes": "32"
            }
        }
    }
}